{
  "_format": "hh-sol-artifact-1",
  "contractName": "AntiFakeBatch",
  "sourceName": "contracts/AntiFakeBatch.sol",
  "abi": [
    {
      "inputs": [
        {
          "internalType": "address",
          "name": "_backendSigner",
          "type": "address"
        }
      ],
      "stateMutability": "nonpayable",
      "type": "constructor"
    },
    {
      "anonymous": false,
      "inputs": [
        {
          "indexed": true,
          "internalType": "bytes32",
          "name": "batchId",
          "type": "bytes32"
        },
        {
          "indexed": false,
          "internalType": "bytes32",
          "name": "merkleRoot",
          "type": "bytes32"
        },
        {
          "indexed": false,
          "internalType": "bytes32",
          "name": "regionHash",
          "type": "bytes32"
        },
        {
          "indexed": false,
          "internalType": "uint256",
          "name": "mintedAt",
          "type": "uint256"
        }
      ],
      "name": "BatchMinted",
      "type": "event"
    },
    {
      "anonymous": false,
      "inputs": [
        {
          "indexed": true,
          "internalType": "bytes32",
          "name": "batchId",
          "type": "bytes32"
        },
        {
          "indexed": false,
          "internalType": "string",
          "name": "serial",
          "type": "string"
        },
        {
          "indexed": true,
          "internalType": "address",
          "name": "scanner",
          "type": "address"
        },
        {
          "indexed": false,
          "internalType": "bytes32",
          "name": "gpsHash",
          "type": "bytes32"
        },
        {
          "indexed": false,
          "internalType": "uint256",
          "name": "timestamp",
          "type": "uint256"
        }
      ],
      "name": "ScanRecorded",
      "type": "event"
    },
    {
      "inputs": [],
      "name": "backendSigner",
      "outputs": [
        {
          "internalType": "address",
          "name": "",
          "type": "address"
        }
      ],
      "stateMutability": "view",
      "type": "function"
    },
    {
      "inputs": [
        {
          "internalType": "bytes32",
          "name": "",
          "type": "bytes32"
        }
      ],
      "name": "batches",
      "outputs": [
        {
          "internalType": "bytes32",
          "name": "merkleRoot",
          "type": "bytes32"
        },
        {
          "internalType": "bytes32",
          "name": "regionHash",
          "type": "bytes32"
        },
        {
          "internalType": "uint256",
          "name": "mintedAt",
          "type": "uint256"
        },
        {
          "internalType": "bool",
          "name": "exists",
          "type": "bool"
        }
      ],
      "stateMutability": "view",
      "type": "function"
    },
    {
      "inputs": [
        {
          "internalType": "bytes32",
          "name": "batchId",
          "type": "bytes32"
        },
        {
          "internalType": "bytes32",
          "name": "merkleRoot",
          "type": "bytes32"
        },
        {
          "internalType": "bytes32",
          "name": "regionHash",
          "type": "bytes32"
        }
      ],
      "name": "mintBatch",
      "outputs": [],
      "stateMutability": "nonpayable",
      "type": "function"
    },
    {
      "inputs": [
        {
          "internalType": "bytes32",
          "name": "batchId",
          "type": "bytes32"
        },
        {
          "internalType": "string",
          "name": "serial",
          "type": "string"
        },
        {
          "internalType": "bytes32",
          "name": "gpsHash",
          "type": "bytes32"
        }
      ],
      "name": "recordScan",
      "outputs": [],
      "stateMutability": "nonpayable",
      "type": "function"
    },
    {
      "inputs": [
        {
          "internalType": "bytes32",
          "name": "",
          "type": "bytes32"
        },
        {
          "internalType": "string",
          "name": "",
          "type": "string"
        }
      ],
      "name": "serialUsed",
      "outputs": [
        {
          "internalType": "bool",
          "name": "",
          "type": "bool"
        }
      ],
      "stateMutability": "view",
      "type": "function"
    },
    {
      "inputs": [
        {
          "internalType": "bytes32",
          "name": "batchId",
          "type": "bytes32"
        },
        {
          "internalType": "string",
          "name": "serial",
          "type": "string"
        },
        {
          "internalType": "bytes32[]",
          "name": "proof",
          "type": "bytes32[]"
        }
      ],
      "name": "verifySerial",
      "outputs": [
        {
          "internalType": "bool",
          "name": "",
          "type": "bool"
        }
      ],
      "stateMutability": "view",
      "type": "function"
    }
  ],
  "bytecode": "0x608060405234801561001057600080fd5b50604051611137380380611137833981810160405281019061003291906100db565b806000806101000a81548173ffffffffffffffffffffffffffffffffffffffff021916908373ffffffffffffffffffffffffffffffffffffffff16021790555050610108565b600080fd5b600073ffffffffffffffffffffffffffffffffffffffff82169050919050565b60006100a88261007d565b9050919050565b6100b88161009d565b81146100c357600080fd5b50565b6000815190506100d5816100af565b92915050565b6000602082840312156100f1576100f0610078565b5b60006100ff848285016100c6565b91505092915050565b611020806101176000396000f3fe608060405234801561001057600080fd5b50600436106100625760003560e01c806305ad9afc14610067578063130c29d11461009757806365d65e86146100b3578063a60f888f146100d1578063c81e25ab146100ed578063e2c27e1114610120575b600080fd5b610081600480360381019061007c9190610926565b610150565b60405161008e919061099d565b60405180910390f35b6100b160048036038101906100ac9190610a18565b610195565b005b6100bb6103aa565b6040516100c89190610acd565b60405180910390f35b6100eb60048036038101906100e69190610ae8565b6103ce565b005b61010760048036038101906101029190610b3b565b610579565b6040516101179493929190610b90565b60405180910390f35b61013a60048036038101906101359190610c2b565b6105b6565b604051610147919061099d565b60405180910390f35b6002602052816000526040600020818051602081018201805184825260208301602085012081835280955050505050506000915091509054906101000a900460ff1681565b60008054906101000a900473ffffffffffffffffffffffffffffffffffffffff1673ffffffffffffffffffffffffffffffffffffffff163373ffffffffffffffffffffffffffffffffffffffff1614610223576040517f08c379a000000000000000000000000000000000000000000000000000000000815260040161021a90610d1d565b60405180910390fd5b6001600085815260200190815260200160002060030160009054906101000a900460ff16610286576040517f08c379a000000000000000000000000000000000000000000000000000000000815260040161027d90610d89565b60405180910390fd5b6002600085815260200190815260200160002083836040516102a9929190610dd9565b908152602001604051809103902060009054906101000a900460ff1615610305576040517f08c379a00000000000000000000000000000000000000000000000000000000081526004016102fc90610e3e565b60405180910390fd5b600160026000868152602001908152602001600020848460405161032a929190610dd9565b908152602001604051809103902060006101000a81548160ff0219169083151502179055503373ffffffffffffffffffffffffffffffffffffffff16847f7af04383277ddddb0e760a8577d5585a7a77132a4008dbd78b02cfb02611da268585854260405161039c9493929190610e8b565b60405180910390a350505050565b60008054906101000a900473ffffffffffffffffffffffffffffffffffffffff1681565b60008054906101000a900473ffffffffffffffffffffffffffffffffffffffff1673ffffffffffffffffffffffffffffffffffffffff163373ffffffffffffffffffffffffffffffffffffffff161461045c576040517f08c379a000000000000000000000000000000000000000000000000000000000815260040161045390610d1d565b60405180910390fd5b6001600084815260200190815260200160002060030160009054906101000a900460ff16156104c0576040517f08c379a00000000000000000000000000000000000000000000000000000000081526004016104b790610f17565b60405180910390fd5b6040518060800160405280838152602001828152602001428152602001600115158152506001600085815260200190815260200160002060008201518160000155602082015181600101556040820151816002015560608201518160030160006101000a81548160ff021916908315150217905550905050827fadbb5e316709622c3343e18f61b56361091aaeae5b3c5d9b4f068ea20d35876583834260405161056c93929190610f37565b60405180910390a2505050565b60016020528060005260406000206000915090508060000154908060010154908060020154908060030160009054906101000a900460ff16905084565b60006001600087815260200190815260200160002060030160009054906101000a900460ff1661061b576040517f08c379a000000000000000000000000000000000000000000000000000000000815260040161061290610d89565b60405180910390fd5b60008585604051602001610630929190610dd9565b6040516020818303038152906040528051906020012090506000610695858580806020026020016040519081016040528093929190818152602001838360200280828437600081840152601f19601f82011690508083019250505050505050836106bd565b9050600160008981526020019081526020016000206000015481149250505095945050505050565b60008082905060005b845181101561078b578481815181106106e2576106e1610f6e565b5b602002602001015182106107385784818151811061070357610702610f6e565b5b60200260200101518260405160200161071d929190610fbe565b6040516020818303038152906040528051906020012061077c565b8185828151811061074c5761074b610f6e565b5b6020026020010151604051602001610765929190610fbe565b604051602081830303815290604052805190602001205b915080806001019150506106c6565b508091505092915050565b6000604051905090565b600080fd5b600080fd5b6000819050919050565b6107bd816107aa565b81146107c857600080fd5b50565b6000813590506107da816107b4565b92915050565b600080fd5b600080fd5b6000601f19601f8301169050919050565b7f4e487b7100000000000000000000000000000000000000000000000000000000600052604160045260246000fd5b610833826107ea565b810181811067ffffffffffffffff82111715610852576108516107fb565b5b80604052505050565b6000610865610796565b9050610871828261082a565b919050565b600067ffffffffffffffff821115610891576108906107fb565b5b61089a826107ea565b9050602081019050919050565b82818337600083830152505050565b60006108c96108c484610876565b61085b565b9050828152602081018484840111156108e5576108e46107e5565b5b6108f08482856108a7565b509392505050565b600082601f83011261090d5761090c6107e0565b5b813561091d8482602086016108b6565b91505092915050565b6000806040838503121561093d5761093c6107a0565b5b600061094b858286016107cb565b925050602083013567ffffffffffffffff81111561096c5761096b6107a5565b5b610978858286016108f8565b9150509250929050565b60008115159050919050565b61099781610982565b82525050565b60006020820190506109b2600083018461098e565b92915050565b600080fd5b600080fd5b60008083601f8401126109d8576109d76107e0565b5b8235905067ffffffffffffffff8111156109f5576109f46109b8565b5b602083019150836001820283011115610a1157610a106109bd565b5b9250929050565b60008060008060608587031215610a3257610a316107a0565b5b6000610a40878288016107cb565b945050602085013567ffffffffffffffff811115610a6157610a606107a5565b5b610a6d878288016109c2565b93509350506040610a80878288016107cb565b91505092959194509250565b600073ffffffffffffffffffffffffffffffffffffffff82169050919050565b6000610ab782610a8c565b9050919050565b610ac781610aac565b82525050565b6000602082019050610ae26000830184610abe565b92915050565b600080600060608486031215610b0157610b006107a0565b5b6000610b0f868287016107cb565b9350506020610b20868287016107cb565b9250506040610b31868287016107cb565b9150509250925092565b600060208284031215610b5157610b506107a0565b5b6000610b5f848285016107cb565b91505092915050565b610b71816107aa565b82525050565b6000819050919050565b610b8a81610b77565b82525050565b6000608082019050610ba56000830187610b68565b610bb26020830186610b68565b610bbf6040830185610b81565b610bcc606083018461098e565b95945050505050565b60008083601f840112610beb57610bea6107e0565b5b8235905067ffffffffffffffff811115610c0857610c076109b8565b5b602083019150836020820283011115610c2457610c236109bd565b5b9250929050565b600080600080600060608688031215610c4757610c466107a0565b5b6000610c55888289016107cb565b955050602086013567ffffffffffffffff811115610c7657610c756107a5565b5b610c82888289016109c2565b9450945050604086013567ffffffffffffffff811115610ca557610ca46107a5565b5b610cb188828901610bd5565b92509250509295509295909350565b600082825260208201905092915050565b7f6e6f74206261636b656e64000000000000000000000000000000000000000000600082015250565b6000610d07600b83610cc0565b9150610d1282610cd1565b602082019050919050565b60006020820190508181036000830152610d3681610cfa565b9050919050565b7f6261746368206e6f7420666f756e640000000000000000000000000000000000600082015250565b6000610d73600f83610cc0565b9150610d7e82610d3d565b602082019050919050565b60006020820190508181036000830152610da281610d66565b9050919050565b600081905092915050565b6000610dc08385610da9565b9350610dcd8385846108a7565b82840190509392505050565b6000610de6828486610db4565b91508190509392505050565b7f73657269616c20616c7265616479207363616e6e656400000000000000000000600082015250565b6000610e28601683610cc0565b9150610e3382610df2565b602082019050919050565b60006020820190508181036000830152610e5781610e1b565b9050919050565b6000610e6a8385610cc0565b9350610e778385846108a7565b610e80836107ea565b840190509392505050565b60006060820190508181036000830152610ea6818688610e5e565b9050610eb56020830185610b68565b610ec26040830184610b81565b95945050505050565b7f6261746368206578697374730000000000000000000000000000000000000000600082015250565b6000610f01600c83610cc0565b9150610f0c82610ecb565b602082019050919050565b60006020820190508181036000830152610f3081610ef4565b9050919050565b6000606082019050610f4c6000830186610b68565b610f596020830185610b68565b610f666040830184610b81565b949350505050565b7f4e487b7100000000000000000000000000000000000000000000000000000000600052603260045260246000fd5b6000819050919050565b610fb8610fb3826107aa565b610f9d565b82525050565b6000610fca8285610fa7565b602082019150610fda8284610fa7565b602082019150819050939250505056fea26469706673582212206549a1ba01e983cfd6904eb35cf38665b617b0947a6c991fbce0e138dc6bad7764736f6c634300081c0033",
  "linkReferences": {},
  "deployedLinkReferences": {}
}